:020000040800F2
:1000000088090020951300089D1300089F1300081D
:10001000A1130008A3130008A513000800000000A6
:10002000000000000000000000000000A71300080E
:10003000A913000800000000AB1300084B220008C1
:10004000AF130008AF130008AF130008AF13000888
:10005000AF130008AF130008172300081D23000882
:1000600023230008292300082F2300081524000853
:1000700017240008192400081B2400082324000862
:100080002524000827240008AF130008AF13000838
:10009000AF130008AF130008AF13000835230008A2
:1000A000AF1300080F230008AF130008AF130008B8
:1000B000112300081323000815230008FB22000861
:1000C000032300080B2300080D230008AF130008CA
:1000D000AF130008E9220008F1220008F922000805
:1000E00095230008AF130008AF13000800F002F8D2
:1000F00000F03CF80AA090E8000C82448344AAF186
:100100000107DA4501D100F031F8AFF2090EBAE883
:100110000F0013F0010F18BFFB1A43F0010318473B
:100120008C350000AC350000103A24BF78C878C187
:10013000FAD8520724BF30C830C144BF04680C60ED
:10014000704700000023002400250026103A28BF35
:1001500078C1FBD8520728BF30C148BF0B60704739
:100160001FB502F025FD1FBD10B510BD02F032FD18
:100170001146FFF7F5FF00F009F802F050FD03B457
:10018000FFF7F2FF03BC02F057FD000001F022F977
:1001900024A12B4801F097FF2A4801F0FFF938B15C
:1001A0000121294801F02EFA28A1254801F08BFFF2
:1001B0002C4801F0F3F90028EED10021224801F08B
:1001C00021FA29A11E4801F07EFFE5E730B587B08E
:1001D000032410230D222A491B48009401F07FF9C3
:1001E000284D2823002229461648009401F077F96B
:1001F0004823012229461B48009401F070F9002091
:10020000029003900490059001210720CDE90001A0
:1002100003234FF416521C49094801F0CCFB07B0E8
:1002200030BD000057454C434F4D455F544F5F5321
:10023000544D333246313033433854360D0A0000C2
:100240007C0000206400002058000020596F7520B9
:10025000686176652070726573736564206B65797B
:10026000310D0A0070000020596F752068617665B5
:100270002070726573736564206B6579320D0A00B6
:100280000010014000080140003801404D4882B094
:10029000016841F00101016041684B4A1140416031
:1002A000016821F4102121F080710160016821F4BE
:1002B00080210160416821F4FE0141604FF41F017B
:1002C0008160002201920092016841F48031016056
:1002D000016801F4003100910199491C01910099D4
:1002E00019B90199B1F5A06FF2D1016811F4003F7D
:1002F00008BF009233D00121009134490A6842F0CE
:1003000010020A600A6822F003020A600A6842F0DA
:1003100002020A604168416041684160416841F4FD
:1003200080614160416821F47C114160416841F481
:10033000E8114160016841F080710160016811F0CD
:10034000007FFBD0416821F003014160416841F02A
:1003500002014160416801F00C010829FAD11C49F1
:100360004FF00060086002B0704716494868194AAB
:1003700010F00C03184818BF042B01D0082B01D033
:10038000026015E04A684B6802F470124FF0020CEC
:1003900013F4803F0CEB924203D04B6813F4003F00
:1003A00003D00E4B5A43026002E00A4B5A430260EC
:1003B00049680B4AC1F30311515C026822FA01F14A
:1003C00001607047001002400000FFF8002002406A
:1003D00008ED00E000127A000000002000093D0056
:1003E000040000202C4940F0FD7040F0806008605F
:1003F000704710B4C2780178012322B3264A1268EC
:100400000F2402F4E062C2F5E062120AC2F1040CA9
:1004100024FA02F2447801F1E02104FA0CFC847819
:10042000224042EA0C02120181F80024007800F018
:100430001F0103FA01F14009800000F1E020C0F83B
:10044000001110BC704701F01F0003FA00F04909C9
:10045000890001F1E021C1F8800110BC704721F052
:100460007F0121F0604108430C49086070470C4A45
:100470000029116814BF084321EA0000106070478A
:100480004FF0E021042808690CBF40F0040020F080
:1004900004000861704700000CED00E008ED00E08A
:1004A00010ED00E001684FF6FE721140016000217E
:1004B000016041608160C160684A6949904204BF3F
:1004C000486840F00F0022D0664A904204BF486856
:1004D00040F0F0001BD0644A904204BF486840F4EA
:1004E000706014D0614A904204BF486840F4704084
:1004F0000DD05F4A904204BF486840F4702006D097
:100500005C4A904204BF486840F4700001D14860E2
:100510007047594A904204D1486840F07060486082
:100520007047564A111F904204BF086840F00F0000
:1005300014D0534A904204BF086840F0F0000DD038
:10054000504A904204BF086840F4706006D04E4A9A
:10055000904204BF086840F4704001D108607047C1
:100560004A4A904218BF7047086840F470200860FB
:10057000704710B40268D1F820C08B686FF30E1278
:1005800043EA0C03D1E904C44CEA040C43EA0C032B
:10059000D1F818C043EA0C03D1F81CC043EA0C039D
:1005A000D1F824C043EA0C03D1F828C043EA0C0375
:1005B0001A430260CA6842600A6882604968C16082
:1005C00010BC70470021016041608160C160016121
:1005D00041618161C16101624162816270470029AC
:1005E000016812BF41F001014FF6FE721140016037
:1005F0007047002A026814BF114322EA010101601A
:10060000704741607047406880B27047002110F029
:10061000805F14BF1E4A124A1268024218BF0121AD
:100620000846704710F0805F19BF1A4908600C49EE
:1006300048607047002110F0805F14BF144A084AD8
:100640001268024218BF01210846704710F0805F0F
:1006500019BF10490860024948607047080002400D
:10066000000002401C0002403000024044000240F2
:10067000580002406C000240800002400804024022
:100680001C0402403004024044040240580402406A
:1006900000040240040402403B4900200860091D98
:1006A0000860091D0860091D08603949374808605D
:1006B000704782790168002A35D0334A136823EAEB
:1006C00001011160111D0A6803689A430A600179EB
:1006D00001F1804101F582310A6803681A430A601A
:1006E0002C490A6803689A430A600B1D1A68D0F8FF
:1006F00000C022EA0C021A604279102A08D002F1E6
:10070000804202F582321168006808431060704729
:100710000A68D0F800C042EA0C020A601968006852
:10072000084318607047007900F1804000F582307E
:10073000026822EA01010160704700210160017135
:100740000C2242718171704713490A681043086096
:1007500070470F4A0146002012680A4218BF012064
:1007600070470B4908607047074A00211268084B20
:1007700002401B6803421CBF002A01210846704743
:10078000034908607047000000040140FFFF0F00AC
:1007900014040140080401401004014010B5A0F108
:1007A0008041B1F584311DD0B1F5806124D0B1F51F
:1007B00080612BD0B1F5806132D0B1F5806139D044
:1007C000B1F5806140D0B1F5806118BF10BD012145
:1007D000080200F0F2FBBDE8104000214FF48070E9
:1007E00000F0EBBB0121042000F0E7FB0021BDE895
:1007F0001040042000F0E1BB0121082000F0DDFBE7
:100800000021BDE81040082000F0D7BB01211020D6
:1008100000F0D3FB0021BDE81040102000F0CDBB5C
:100820000121202000F0C9FB0021BDE8104020205C
:1008300000F0C3BB0121402000F0BFFB0021BDE858
:100840001040402000F0B9BB0121802000F0B5FB32
:100850000021BDE81040802000F0AFBB10B50121A1
:10086000084600F0AAFB0021BDE81040012000F07E
:10087000A4BB2DE9F001CB78002203F00F0C13F09C
:10088000100F1CBF8B7843EA0C0C0B784FF00F064F
:1008900013F0FF0F4FF0010518BF04681AD000BF16
:1008A0000F8805FA02F31F409F420FD1970006FA06
:1008B00007F824EA08040CFA07F73C43CF78282FFE
:1008C00008BF436102D0482F08BF0361521C082AA9
:1008D000E6D304600A88FF2A87BF44680022BDE887
:1008E000F001704702F108030F8805FA03F31F4077
:1008F0009F420FD1970006FA07F824EA08040CFA81
:1009000007F73C43CF78282F08BF4361CF78482FA3
:1009100008BF0361521C082AE4D34460BDE8F0011B
:1009200070474FF6FF710180022181700421C17070
:1009300070470246002092680A4218BF01207047A3
:10094000806880B2704702460020D2680A4218BF11
:1009500001207047C06880B27047016170474161F3
:100960007047002A14BF016141617047C160704740
:1009700041F480328261816182618169806970475E
:100980002C4A13684FF6807C03EA0C0343EA0010FC
:100990000843106070472849C861704770B4254A01
:1009A00010F0004F14BFD3695368C0F303444FF4F1
:1009B000401C3CEA00054FEA505C4FEA0C1C86B232
:1009C00006FA0CFC16D010F4801F08BF23EA0C03B3
:1009D00003D0032505FA04F4A34343F07063002910
:1009E00018BF4CEA030310F0004F14BFD3615360EB
:1009F00070BC7047546823F0706324F070645460D6
:100A0000EDE78A0721F0030101F1804101F5803112
:100A1000120F0F23D1F808C093402CEA03038B6018
:100A20008B6890401843886070470349C1F8DC0028
:100A3000704700000000014000002042A0F180410A
:100A400010B5B1F5A8414FF0010109D0880500F0BB
:100A5000BDFABDE8104000214FF4800000F0B6BAA6
:100A60004FF4001000F0B2FABDE8104000214FF43E
:100A7000001000F0ABBA70B50446808886B00D4611
:100A800020F03F06684600F031FAB2490298B0FB08
:100A9000F1F189B246EA0102A280228822F0010225
:100AA0002280AD4B2A689A421DD85200B0FBF2F06A
:100AB00080B2042838BF0420491C2184A0832088E8
:100AC00040F0010020802088A9886A8920F00A006F
:100AD00020F48060114308432080A88929890843B5
:100AE000208106B070BDEB88A3F53F4CBCF1FF0C34
:100AF00019D002EBC20303EB0212B0FBF2F080B29A
:100B000040F480400205120D08BF40F0010040F49F
:100B100000404FF4967251434FF47A72B1FBF2F1F8
:100B2000491C2184CAE702EB4202B0FBF2F080B21A
:100B3000E8E741F288310160002181804BF6FF72C5
:100B4000C280018141814FF4804181817047002939
:100B5000018814BF41F0010121F0010101807047BB
:100B60000029818814BF41F4006121F40061818073
:100B700070470029818814BF41F4805121F48051CD
:100B8000818070470029018814BF41F4807121F4ED
:100B90008071018070470029018814BF41F4007101
:100BA00021F40071018070470029018814BF41F4CD
:100BB000806121F4806101807047828901F0FE012B
:100BC00022F0FE021143818170470029818914BF00
:100BD00041F0010121F00101818170470029018864
:100BE00014BF41F0400121F0400101807047002A0C
:100BF000828814BF114322EA01018180704701827B
:100C00007047008AC0B27047002A14BF41F001014A
:100C100001F0FE010182704781B008440090008815
:100C200001B070470029018814BF41F40041C1F3AD
:100C30000E0101807047B1F5006F01880CBF41F4CF
:100C4000006121F4006101807047B1F5005F018807
:100C50000CBF41F4005121F400510180704700297C
:100C6000018814BF41F4805121F480510180704704
:100C7000B1F5006F01880CBF41F4006121F40061FF
:100C8000018070470029018814BF41F0200121F044
:100C9000200101807047008B000A704700290188FD
:100CA00014BF41F0100121F01001018070470029AC
:100CB00001880CBF41F0800121F080010180704764
:100CC000B1F5804F818B14BF21F4804141F4804104
:100CD00081837047838A0022008B43EA004020F022
:100CE0007F4031EA000008BF012210467047818A28
:100CF000008B41EA004020F07F40704782B00246FE
:100D0000002000920A0F21F07F41019208BF090CD8
:100D1000009A14BF14321832009212680A4218BFA7
:100D2000012002B07047C943818270478388002246
:100D30004FF4E06C0CEA114C808A03EA0C0321F0BA
:100D40007F4108421CBF002B012210467047C94357
:100D50008182704740420F00A0860100AD480168C3
:100D600041F0010101604168AB4A114041600168F6
:100D700021F4102121F080710160016821F48021AB
:100D80000160416821F4FE0141604FF41F01816060
:100D90007047A0490A6822F480320A600A6822F487
:100DA00080220A60B0F5803F04BF086840F48030BC
:100DB00006D0B0F5802F06BF086840F4A020704729
:100DC00008607047002243099249012B08BF096857
:100DD00003D0022B0CBF096A496A00F01F000123EF
:100DE00003FA00F0084218BF01221046704781B094
:100DF00000208849009000200A6812F4003F18BFC4
:100E00000120009A521C0092B2F5A06F01D0002878
:100E1000F1D0086810F4003018BF012001B070470D
:100E20007C490A6822F0F80242EAC0000860704774
:100E30007A4908607047774A5368084323F47C1363
:100E400018435060704775490866704771494A6891
:100E500022F003021043486070476E48406800F07B
:100E60000C0070476B494A6822F0F002104348605A
:100E7000704768494A6822F4E0621043486070474E
:100E800064494A6822F4605242EAC00048607047F0
:100E9000604A0029517A14BF084321EA00005072C9
:100EA00070475E49C1F8D80070475A494A6822F431
:100EB00040421043486070475649002281F8202084
:100EC00081F82020012803D004280CBF052070479A
:100ED00081F8200070475249086070474D490A6AFE
:100EE0001043086270474F4908607047494910B481
:100EF0004A6812F00C034C4A18BF042B01D0082B8F
:100F000001D0026015E04A684B6802F470124FF09D
:100F1000020C13F4803F0CEB924203D04B6813F4A5
:100F2000003F03D0414B5A43026002E03E4B5A431C
:100F300002604A680F2303EA12123D4B9A5CD0F814
:100F400000C02CFA02F24260D1F804C0072404EA7F
:100F50001C2C13F80CC022FA0CFCC0F808C0D1F805
:100F600004C004EADC2C13F80C30DA40C260496893
:100F7000032303EA91312F4B595CB2FBF1F101617C
:100F800010BC7047234A0029516914BF084321EA65
:100F90000000506170471F4A0029916914BF08433F
:100FA00021EA0000906170471A4A0029D16914BFF4
:100FB000084321EA0000D0617047164A0029D16831
:100FC00014BF084321EA0000D0607047114A00298D
:100FD000116914BF084321EA0000106170471649E7
:100FE000086070470D49C86470470A49C871704766
:100FF0000848416A41F0807141627047054A0146E4
:10100000002092680A4218BF012070470149887287
:1010100070470000001002400000FFF8000042424C
:10102000800442423C04424200127A0000093D0022
:1010300018000020140000204004424210B5A0F126
:101040008041B1F59C3117D011F574411FD0B1F535
:10105000806127D0B1F580612FD0B1F5806118BFD4
:1010600010BD01210805FFF7B1FFBDE810400021C8
:101070004FF48010FFF7AABF01218803FFF79DFFFF
:10108000BDE8104000214FF48040FFF796BF0121DA
:101090004804FFF79BFFBDE8104000214FF40030EB
:1010A000FFF794BF01218804FFF790FFBDE81040CF
:1010B00000214FF48020FFF789BF0121C804FFF70A
:1010C00085FFBDE8104000214FF40020FFF77EBFF0
:1010D00030B50446008A85B00D464CF6FF710840D5
:1010E000E98808432082A0894EF6F3110840A988B8
:1010F0002A8911436A8910430843A081A08A4FF6C8
:10110000FF410840A9890843A0826846FFF7EEFE28
:10111000A4F18040B0F59C300CBF03980298A189DF
:1011200011F4004F00EBC00101EB0010296814BF5F
:1011300049008900B0FBF1F0954A6FF0180CA2FB52
:101140000031490909010B0903FB0CF300EB830093
:10115000A38913F4004F4FF0320314BF03EBC00018
:1011600003EB0010A2FB00204FEA501014BF00F068
:10117000070000F00F000843208105B030BD4FF498
:101180001651016000218180C18001810C224281C1
:1011900081817047028A4FF2FF031A400B88B1F831
:1011A00002C043EA0C03B1F804C0C9884CEA01014B
:1011B00019431143018270470021018041808180E1
:1011C000C18070470029818914BF41F4005121F486
:1011D000005181817047C1F3421301F01F014FF0AC
:1011E000010C0CFA01F1012B08BF0C3003D0022BCB
:1011F0000CBF10301430002A026814BF114322EAD9
:10120000010101607047002A828A14BF114322EA5B
:10121000010181827047028A22F00F020282028A53
:10122000114301827047828922F40062828182899F
:101230001143818170470029818914BF41F0020167
:1012400021F0020181817047028A22F0200202828D
:10125000028A1143018270470029018A14BF41F4B8
:10126000804121F4804101827047C1F308018180EF
:1012700070478088C0F308007047818941F0010100
:1012800081817047028BD2B20283028B42EA012134
:1012900001837047028B02F47F420283028B114369
:1012A000018370470029818A14BF41F0200121F099
:1012B0002001818270470029818A14BF41F010010A
:1012C00021F01001818270470029818A14BF41F00A
:1012D000080121F00801818270470029818914BF2B
:1012E00041F40041C1F30E01818170470029818AD8
:1012F00014BF41F4006121F4006181827047828A49
:1013000022F004028282828A11438182704700297E
:10131000818A14BF41F0020121F0020181827047ED
:101320000246002012880A4218BF01207047C943B4
:101330000180704710B401F01F0201240023C1F3A3
:10134000421C04FA02F2BCF1010F04BFB0F80CC059
:101350000CEA020208D0BCF1020F0CBFB0F810C0BA
:10136000B0F814C00CEA0202090A008804FA01F17C
:101370000840002A1CBF00280123184610BC7047F3
:10138000090A012202FA01F1C943018070470000F5
:101390001F85EB510948804709480047FEE7FEE7F3
:1013A000FEE7FEE7FEE7FEE7FEE7FEE7FEE7FEE715
:1013B00004480549054A064B704700008D020008A5
:1013C000ED0000088803002088090020880500201F
:1013D0008805002010B56FF00400FFF751F822488F
:1013E00022490068B0FBF1F0C1B2214801EB410293
:1013F0000170C2EBC1114FF6FF7202EAC1014180D8
:1014000010BD1B49097841434FF0E02041610023A2
:101410008361016941F001010161016911F0010F6E
:1014200002D011F4803FF8D0016921F0010101617F
:10143000836170470E49498841434FF0E020416184
:1014400000238361016941F001010161016911F02B
:10145000010F02D011F4803FF8D0016921F00101A1
:1014600001618361704700000000002000127A00D3
:10147000280000204068A0F18041B1F5843116D0E9
:10148000B1F5806117D0B1F5806118D0B1F58061F8
:1014900019D0B1F580611AD0B1F580611BD0B1F5DA
:1014A000806118BF704701210802FFF774BD012158
:1014B0000420FFF770BD01210820FFF76CBD01215A
:1014C0001020FFF768BD01212020FFF764BD012136
:1014D0004020FFF760BD01218020FFF75CBDF8B51B
:1014E0000446069F0370477041600281A1F180406D
:1014F0001D461646B0F584303CD0B0F5806004BF80
:10150000012108203BD0A1F18040B0F5883004BF14
:101510000121102033D0A1F18040B0F58A3004BF02
:10152000012120202BD0A1F18040B0F58C3004BFE8
:101530000121402023D0A1F18040B0F58E3004BFBE
:10154000012180201BD0A1F18040B0F5903004BF74
:101550000121080213D03C48694630F81600ADF866
:1015600000008DF802708DF803506068FFF781F974
:101570002046F8BD01210420FFF70DFDEBE7FFF742
:101580000AFDE8E7304B02894068002933F8122051
:10159000114601D0FFF7E1B9FFF7E1B910B50189B4
:1015A000294A406832F81110FFF7C3F9002818BF24
:1015B000012010BD70B504460089234D35F8101088
:1015C0006068FFF7B6F90028208935F810106068C8
:1015D00003D0BDE87040FFF7C2B9BDE87040FFF727
:1015E000BCB908B50289184B33F81220ADF80020B9
:1015F00042788DF802208DF8031040686946FFF7A5
:1016000038F908BD10B511F0010F0F4A01890446E1
:10161000406832F8111002D0FFF79FF901E0FFF7A0
:101620009EF9204610BD70B50C4605460089064956
:1016300031F810106868FFF77CF9002818BF012006
:101640002070284670BD00004036000838B50446BA
:10165000006A012140F00100FFF79DFCFE4DE069AA
:101660004FF00101A842606A02D1FFF794FC01E04B
:10167000FFF79AFC94F82800D0B1E069A84203D1A2
:1016800001210420FFF78AF9E069A0F18041B1F55A
:10169000884103D101210820FFF780F9E069A0F11A
:1016A0008041B1F5904103D10121EC48FFF776F973
:1016B00003208DF8020018208DF80300608AADF831
:1016C00000006946A069FFF7D4F804208DF80300F4
:1016D000A08AADF800006946A069FFF7CAF838BDD6
:1016E00010B584B0044680680090E089ADF804002D
:1016F000208AADF80600A089ADF808000020ADF8FA
:101700000C000C20ADF80A006946E069FFF7E0FC28
:101710000121E069FFF756FD012240F22551E06901
:10172000FFF759FD4021E069FFF701FE04B010BD4D
:1017300038B5044690F82B00052827D2DFE800F0E2
:101740000306232629004FF4E06001E04FF4C06057
:10175000FEF748FEA07D8DF8000094F829008DF872
:10176000010094F82A008DF8020001208DF8030092
:101770006846FEF73EFE94F8D2018DF800006846F8
:10178000FEF737FE38BD4FF4A060E1E74FF480600C
:10179000DEE74FF44070DBE710B5044601218CB062
:1017A0000846FFF7EFFBD4F8D401FEF77BFEE069B3
:1017B0008021001D009004F5F0700190102002902F
:1017C0000020CDE90401039006900790089009904D
:1017D0000A906946D4F8D401FEF7CBFE012202211B
:1017E000D4F8D401FEF705FF01220821D4F8D40172
:1017F000FEF7FFFE01228021E069FFF704FD0021D2
:10180000D4F8D401FEF7EBFE0CB010BD30B50446A1
:10181000006A8BB040F001000121FFF7BCFB8E4D48
:10182000E0694FF00101A842606A02D1FFF7B3FB03
:1018300001E0FFF7B9FB94F82800D0B1E069A842B5
:1018400003D101210420FFF7A9F8E069A0F180414C
:10185000B1F5884103D101210820FFF79FF8E06925
:10186000A0F18041B1F5904103D101217B48FFF700
:1018700095F803208DF8020018208DF80300608A87
:10188000ADF800006946A069FEF7F3FF04208DF86B
:101890000300A08AADF800006946A069FEF7E9FFE1
:1018A00094F82B0005287CD2DFE800F003067C7F4B
:1018B00082004FF4E06001E04FF4C060FEF792FD5B
:1018C000A07D8DF8000094F829008DF8010094F8AF
:1018D0002A008DF8020001208DF803006846FEF70B
:1018E00088FD94F8D2018DF800006846FEF781FD6E
:1018F000A0680090E089ADF80400208AADF80600E9
:10190000A089ADF8080000250C20ADF80C50ADF80A
:101910000A006946E069FFF7DBFB0121E069FFF798
:1019200051FC012240F22551E069FFF754FC4021AF
:10193000E069FFF7FCFC01210846FFF723FBD4F820
:10194000D401FEF7AFFDE0696946001D009004F583
:10195000F07001901020CDE902058020CDE90450FF
:1019600006950795089509950A95D4F8D401FEF7D0
:1019700000FE01220221D4F8D401FEF73AFE012232
:101980000821D4F8D401FEF734FE01228021E06959
:10199000FFF739FC0021D4F8D401FEF720FE0BB08C
:1019A00030BD02E04FF4A06088E74FF4806085E727
:1019B0004FF4407082E72DE9F05F0446DDE90E76D2
:1019C000DDE90CC8DDE90AA9254820604FF0C80B05
:1019D000A4F8F4B00020A4F8F600A4F8F800A4F8E5
:1019E000FA00A4F8C4B1A4F8C601A4F8C801A4F888
:1019F000CA01A260E16184F82B3084F829A084F840
:101A00002A9084F828C0A4F80C80E781268203225B
:101A100084F8CC21A4F8CE01A4F8D0011148124AD0
:101A2000A1F18043B3F59C3306D013F5744337D04E
:101A3000B3F580625DD071E02521A1754FF480413E
:101A40006162BCF1000F08BF1046A06114BF4020C6
:101A50004FF40070608209E000380140100014006B
:101A600084360008000C01400008014014BF8020AB
:101A70004FF48060A08214BF082004202062FE483A
:101A8000C4F8D4014FF00E0084F8D2014FF4005096
:101A9000C4F8D8014FF48050C4F8DC01F74826E0C0
:101AA0004FF02600A0754FF400306062BCF1000FCB
:101AB00018BFF34AA26114BF20200420608214BF23
:101AC00040200820A08214BF202004202062ED487E
:101AD000C4F8D4014FF0110084F8D2014FF0007027
:101AE000C4F8D8014FF08070C4F8DC01E648046007
:101AF00014E04FF02701A1754FF480216162BCF121
:101B0000000F18BFE148A0614FF4806060824FF47D
:101B10000060A08214BF1020082020622046FFF73A
:101B200075FE2046BDE8F09F70B586B00546C669D3
:101B30000C466846FFF7DAF9A6F18040B0F59C3014
:101B40000CBF039A029AEB69988910F4004F02EBDC
:101B5000C20000EB021014BF6100A100B0FBF1F065
:101B6000CB4A6FF01804A2FB00C1490909014FEAF2
:101B7000111C0CFB04FC00EB8C00B3F80CC01CF433
:101B8000004F4FF0320C14BF0CEBC0000CEB0010F8
:101B9000A2FB00204FEA501014BF00F0070000F035
:101BA0000F000843188106B070BD70B5B0F8F4306E
:101BB000B0F8F6C00446A3EB0C0080B2904206D207
:101BC000B4F8CE011044A4F8CE01002070BD9444B6
:101BD00004F12C009C4522D80023002A88BF002550
:101BE00018D900BFB0F8CE6011F803C000F806C0E5
:101BF000B0F8CEC00CF1010C1FFA8CFCA0F8CEC0DE
:101C0000B0F8C860B44528BFA0F8CE505B1C9BB2AA
:101C10009342E7D3B0F8CA101144A0F8CA10207953
:101C200090B9B4F8F60078B101212171C8280DD817
:101C3000D4F8D4114860B4F8F62004F5F07104F13A
:101C40002C0001F01DF80CE0012070BDD4F8D41177
:101C5000C8204860024604F5F07104F12C0001F040
:101C60000FF80121D4F8D401FEF7B9FC012070BDB2
:101C700010B4B0F8F6C0B0F8F440002300F12C0224
:101C8000A44507D3B0F8CE11491CA0F8CE1110BC62
:101C900000207047B2F8CE0000F1010CA2F8CEC0CF
:101CA0001154B2F8CE00B2F8C810884228BFA2F88A
:101CB000CE30B2F8CA00401CA2F8CA0010BC012005
:101CC0007047FC3000F0DCBFFC3000F0BBBFB0F868
:101CD000F6007047B0F8C6017047B0F8CE01704703
:101CE000B0F8D00170470021A0F8C611A0F8C811C3
:101CF000A0F8CA1170470021A0F8F610A0F8F8105B
:101D0000A0F8FA1070472DE9F05F00F1FC040E46D0
:101D10005FF00005B4F8CA70C7B1B4F8CC90317860
:101D200014F8090088420ED009F1010080B2A4F82D
:101D3000CC00B4F8C810884228BFA4F8CC50781E54
:101D4000A4F8CA00E6E7B8B2042802D22846BDE8E3
:101D5000F09F1FFA89F000F1010CB4F8C8001FFAD7
:101D60008CF1814224BF091A89B2635C0C2B0FD914
:101D70001FFA8CF0A4F8CC00B4F8C81081421DD929
:101D8000B4F8CA00401EA4F8CA002846BDE8F09F77
:101D900009F1020189B288429CBF091A89B2625CCA
:101DA0003C4901EB4301497891420AD01FFA8CF07B
:101DB000A4F8CC00B4F8C8108842E1D3A4F8CC5001
:101DC000DEE7111D8F42C1D34FF00008D11C4346FE
:101DD00001F0FF0A09EB030189B288429CBF091A8E
:101DE00089B214F801B05B1CD844AAF1010A08F0CA
:101DF000FF081AF0FF0AEDD1491C89B2814224BFC5
:101E0000081A81B2605C404511D0002F9ED01FFAA5
:101E10008CF0A4F8CC00B4F8C810884228BFA4F80D
:101E2000CC50B4F8CA00401EA4F8CA008EE777B1BF
:101E30001FFA8CF0A4F8CC00B4F8C810884228BF70
:101E4000A4F8CC50B4F8CA00401EA4F8CA00B4F8F4
:101E5000CA0020B3B4F8CC104B1CA4F8CC30605CA2
:101E60007070B4F8CC10B4F8C800814228BFA4F850
:101E7000CC50B4F8CA000FE04400024048000020F3
:101E800000140140800002404C000020001001407E
:101E90001F85EB5160360008401EA4F8CA000004FC
:101EA000000C13D0B4F8CC104B1CA4F8CC30605C00
:101EB000B070B4F8CC10B4F8C800884298BFA4F849
:101EC000CC50B4F8CA00401EA4F8CA00F11C204649
:101ED00000F0D6FEB4F8CA00A0B1B4F8CC00411CA2
:101EE000A4F8CC10205C86F83600B4F8CC00B4F826
:101EF000C810884228BFA4F8CC50B4F8CA00401ECD
:101F0000A4F8CA00012086F83500BDE8F09F70B53E
:101F10000546C0690821FFF703FA00281CBFE869DD
:101F2000FFF7A7F940F22551E869FFF703FA002807
:101F300008BF70BD40F22551E869FFF721FA05F1AD
:101F4000FC04E869FFF795F9B4F8CA10B4F8C83092
:101F50000022C0B2994209D3E8698088814908808B
:101F6000B5F8D001401CA5F8D00170BDB4F8CE1072
:101F70004B1CA4F8CE306054B4F8CE00B4F8C810AE
:101F8000884228BFA4F8CE20B4F8CA00401CA4F8A8
:101F9000CA0070BD70B50446002084B00246002916
:101FA000BCBF01204942704D6B4685FB016C4FEA76
:101FB000AC06A6EBEC7CCCF10006521C06EB8606C8
:101FC000D2B201EB4601C2F10A06303199555FEAFF
:101FD0000C01EAD128B12D20511CCAB2C2F10A016C
:101FE0005854981A00F10A0120680368204698475F
:101FF00004B0204670BD2DE9F0474FF000091546AA
:102000001E46074686B04C464A464B462846314651
:1020100001F0B0F83CBF4FF0010986F0004697F898
:10202000CC01A0F10108B8F1FF3FC8BFDFF83CA127
:102030000CDD002253462846314601F0D7F8A8F1BE
:10204000010805460E46B8F1FF3FF2DC284631464E
:1020500001F050F8464B4FF02E0C6946621CD4B28A
:1020600097F8CC21521C944204BFC4F1140201F829
:1020700002C00CD0A3FB0052D208554205EB8505E7
:1020800000EB4500C4F114053030485510460028D7
:10209000E4D197F8CC21921CA242DFD8B9F1000F0D
:1020A00005D02D20621CD4B2C4F114028854081B40
:1020B00000F114013868224603683846984706B094
:1020C0003846BDE8F08710B50446002308781A4664
:1020D00020B1521C5B1C885C0028FAD120689AB29F
:1020E000036820469847204610BD10B50446D0F836
:1020F000D801FEF78BFA012818BF10BDD4F8DC0117
:10210000FEF7A4FAD4F8D801FEF78CFA0021D4F82F
:10211000D401FEF764FAB4F8F600002804BF207179
:1021200010BDC8280BD8D4F8D4114860B4F8F620F4
:1021300004F5F07104F12C0000F0A2FD0AE0D4F8DF
:10214000D411C8204860024604F5F07104F12C0057
:1021500000F096FDD4F8D401BDE810400121FEF74F
:102160003EBA0000043801406766666600002440FD
:10217000CDCCCCCC2DE9F0474FF0E020DFF84491F6
:10218000DFF844A1514E806900F0E1FF0022504B7E
:1021900000F058FE05460C46D6E904014A4653466F
:1021A00000F09CFD2A46234601F060F9D6E902239F
:1021B00004460D4601F05AF9074688460022454B71
:1021C00000F0D8FF08D24A4653462046294600F080
:1021D00085FD04460D460EE03F4A404B38464146D9
:1021E00001F002F907D24A4653462046294601F03B
:1021F0003DF904460D46C6E9024520462946BDE89C
:10220000F08770B5314C2F4D2F4ED4E904012A468A
:10221000334600F063FDC4E90401FFF7ABFFD4E9E6
:10222000042301F017F92C4A2D4B00F0A3FF28BF1F
:1022300070BD20882A46401C2080D4E90401334622
:1022400000F04CFDC4E9040170BD70B51F4C1D4D7C
:102250001D4ED4E904012A46334600F03FFDC4E98F
:102260000401FFF787FFD4E9042301F0F3F81A4AC9
:102270001B4B00F07FFF28BF70BD20882A46401C02
:102280002080D4E90401334600F028FDC4E90401AC
:1022900070BD4FF0E02181B00A6922F007020A61A7
:1022A000104A4A6100228A610B6943F003030B6103
:1022B00000920099491C0091B1F57A7FF9DB01B0D9
:1022C00070470000CDCCCCCCCCCCFC3F3000002003
:1022D000882A61410000F0BFA4703D0AD7A3FC3FEB
:1022E000D7A3FCBF4031F70051480068FFF70FBE8D
:1022F0004F484068FFF70BBE70474D48806800F0BC
:1023000070BB4B48806800F03BBC7047704770471B
:102310007047704770470120FEF732BA0220FEF77F
:102320002FBA0420FEF72CBA0820FEF729BA102095
:10233000FEF726BA10B52020FEF716FA00281CBFBB
:102340002020FEF71DFA4020FEF70EFA00281CBFE1
:102350004020FEF715FA8020FEF706FA00281CBF81
:102360008020FEF70DFA4FF48070FEF7FDF900288B
:102370001CBF4FF48070FEF703FA4FF40070FEF7B5
:10238000F3F9002808BF10BD4FF40070BDE81040FD
:10239000FEF7F6B910B54FF48060FEF7E5F90028B6
:1023A0001CBF4FF48060FEF7EBF94FF40060FEF7BE
:1023B000DBF900281CBF4FF40060FEF7E1F94FF491
:1023C0008050FEF7D1F900281CBF4FF48050FEF773
:1023D000D7F94FF40050FEF7C7F900281CBF4FF49F
:1023E0000050FEF7CDF94FF48040FEF7BDF900280C
:1023F0001CBF4FF48040FEF7C3F94FF40040FEF7D6
:10240000B3F9002808BF10BD4FF40040BDE81040EC
:10241000FEF7B6B970477047704705480068FFF788
:1024200064BE7047704702484068FFF75EBE704761
:102430004800002038B50D46044601210820FEF76B
:10244000AAFD2068A0F18041B1F5A8410BD1207A06
:1024500048B11C2D07D101210846FEF79CFD012142
:102460000220FEF79BFA03208DF802008DF803503E
:10247000A08961890843ADF800006946F848FEF775
:10248000F8F938BD2DE9F04F0446006883B00188A3
:1024900041F4004101802068018821F4004101805D
:1024A0002068018821F001010180DFF8B8B3DBF872
:1024B000100021690843CBF81000DBF810002169F7
:1024C0008843CBF81000DBF81C0021690843CBF8E7
:1024D0001C000025DFF888A32F464FF0030900BF3A
:1024E0004FF400312068FEF709FC002878D0142D45
:1024F0007CD200212069FEF757FD1026012108201B
:10250000FEF749FD8DF806908DF80760A089618976
:1025100056460843ADF8040001A95046FEF7A9F954
:10252000A1893046FEF71BFA61893046FEF717FA9B
:10253000ADF8007005E000BFBDF80000401CADF82C
:102540000000BDF800006428F6D3A1893046FEF7EC
:1025500004FAADF8047004E0BDF80400401CADF8C6
:102560000400BDF804006428F6D36189B246304601
:10257000FEF7F3F9ADF8047005E000BFBDF8040004
:10258000401CADF80400BDF804006428F6D304260E
:1025900001210820FEF7FFFC8DF806908DF80760FA
:1025A000A08961890843ADF8040001A95046FEF7EF
:1025B00060F9DBF8100021690843CBF81000DBF864
:1025C000100021698843CBF81000DBF81C0021695A
:1025D0000843CBF81C00681CC5B281E700E005E0A9
:1025E000142D3EBF012003B0BDE8F08F002003B0E2
:1025F000BDE8F08F00B585B0416800910021ADF8CD
:102600000410ADF808104FF48061ADF80A1009010C
:102610004BF6FF72ADF80C10ADF806200068694665
:10262000FEF729FA05B000BD38B5044601208DF843
:102630000300207E8DF80000A07E8DF80100E07E72
:102640008DF802006846FDF7D4FE607E8DF800002C
:10265000207F8DF80100607F8DF802006846FDF74D
:10266000C8FE2068818841F4E06181806069FDF7DF
:10267000B9FE38BD2DE9F0410446807F082818BF17
:10268000072802D00020BDE8F081B4F80A24002118
:1026900004F1200004F21443002A04BF0820A077AC
:1026A000F0D0B0F8EC2302EB820C00EB8C0C521C47
:1026B000A0F8EC239CE8E40083E8E400DCF81020B8
:1026C0001A61B0F8EC23B0F8E8339A4228BFA0F8BA
:1026D000EC13B0F8EA23521EA0F8EA230120A077F9
:1026E00084F8101494F81A24002A14BF84F81114E2
:1026F00084F8110401212068FEF756FA01212068B0
:10270000FEF740FA0120BDE8F08130B50446D0F86C
:10271000280485B0401CC4F828042046FFF7B2FE08
:10272000002866D01C2501210820FEF734FC206813
:10273000A0F18041B1F5A84109D1207A38B1012139
:102740000846FEF728FC01210220FEF727F90320A6
:102750008DF802008DF80350A08961890843ADF817
:10276000000069463E48FEF784F860680025009046
:10277000ADF804504BF6FF70ADF80600ADF8085008
:102780004FF48060ADF80A000001ADF80C00694616
:102790002068FEF770F901208DF80300207E8DF887
:1027A0000000A07E8DF80100E07E8DF802006846F2
:1027B000FDF71FFE607E8DF80000207F8DF8010080
:1027C000607F8DF802006846FDF713FE206881885F
:1027D00041F4E06181806069FDF704FEA4F80A54C9
:1027E000A4F80C54A4F80E540820A07705B00120DA
:1027F00030BD0920A07705B0002030BD2DE9F0479D
:102800000446DDE90859DDE90B7600F1200C3220A1
:10281000DDF82880ACF8E8030020ACF8EA03ACF857
:10282000EC03ACF8EE03C4E90012002B14BF012244
:102830000022227284F81A9084F81B80277766772A
:10284000A0774FF0FF30C4F82804A1F180434FF483
:102850008060B3F5A84307D0B3F5806218D022E0BA
:10286000000C014000100240002A14BF4FF4807198
:102870004021A18114BF4FF40071802161811F218B
:1028800021762021617609042161C4490C600AE0A7
:10289000A0814FF40061618121212176222161769E
:1028A0004FF480012161052D0FD2DFE805F003060A
:1028B000090E0C004FF4E06007E04FF4C06004E044
:1028C0004FF4A06001E04FF4407060612046FFF7D4
:1028D0001CFF2046BDE8F087F0B485B0B0F80A745C
:1028E000DDE90A54DDF830C0099E322F21BF0020F7
:1028F00005B0F0BC70478DF8001004948DF80C50B2
:102900005C1E8DF8063002968DF80DC0002C16DD89
:10291000511EEC4613F0010F05D111F8015F8DF83F
:1029200001500CF1010C4D78641008D011F8026FC1
:102930008CF801504D780CF8026F641EF6D1591EC8
:1029400002D4525C69444A70B0F80A14B0F8082402
:10295000203091421CD2B0F8EE1301EB8102491CE9
:10296000A0F8EE139DE81A1000EB820282E81A101C
:1029700004991161B0F8EE13B0F8E823914224BF36
:102980000021A0F8EE13B0F8EA13491CA0F8EA13EE
:1029900005B00120F0BC7047817F08291CBF0020D2
:1029A000704767E6807F09280CBF00200120704730
:1029B000807F08280CBF01200020704781B00021D3
:1029C0000091807F42F21071082807D0009A521CB3
:1029D00000928A42F8D3002001B07047012001B074
:1029E00070472DE9F0416E4D044600272878401CC1
:1029F000C0B2287064280CD90920A077206801880B
:102A000041F4004101802068018821F400410180E7
:102A10002F702068FEF76BF9624A0126811A4FF089
:102A20000708904246D010DC6FF44031401827D0A0
:102A3000012818BFBDE8F0810420A07794F8200495
:102A4000012888BFBDE8F08163E0A1F5802042380D
:102A500004F2154121D0022818BFBDE8F08194F896
:102A6000100494F81A2490425DD20522A277421CE9
:102A700084F81024415C2068BDE8F041FEF7BFB83F
:102A80000220A07784F8107494F8112494F8141498
:102A90002068BDE8F041FEF7B7B80320A07794F8AE
:102AA0001004421C84F81024415C2068BDE8F04109
:102AB000FEF7A5B80620A0772068FEF7A2F8014629
:102AC00094F81004D4F81C34421C84F810241954CF
:102AD00094F8201494F810040A1A012A19D081429B
:102AE00018BFBDE8F08184F81E802F7094F821048F
:102AF000E8B3D4F824546E70FFF73CFBD5E9022309
:102B000007460E4600F0B2FCC5E90401C5E90276AD
:102B100032E000212068FEF747F82068BDE8F04168
:102B20000121FEF738B894F8200450B1A67784F854
:102B3000107484F811642068BDE8F0410121FEF7AB
:102B400021B884F81E8001212068FEF724F82F7038
:102B500094F8210458B1D4F824546E70FFF70AFB9E
:102B6000D5E9022306460F4600F080FC00E003E0B2
:102B7000C5E90401C5E902672046BDE8F04179E5F1
:102B800001680A8842F400420A8001680A8822F437
:102B900000420A8009218177704700005000002020
:102BA0005400002040000300704770477047000049
:102BB00070B5064C7C44064D7D4403E020682044FB
:102BC0008047241DAC42F9D170BD0000140B0000F9
:102BD000140B0000754600F029F8AE460500694662
:102BE000534620F00700854618B020B5FEF7E0FBFD
:102BF000BDE820404FF000064FF000074FF00008FE
:102C00004FF0000B21F00701AC46ACE8C009ACE87E
:102C1000C009ACE8C009ACE8C0098D46704704465D
:102C2000AFF300802046FDF7AAFA00000048704785
:102C3000240300207047000001491820ABBEFEE7C6
:102C400026000200B0F8CA20002A04BF0020704706
:102C5000B0F8CC20531CA0F8CC30825C0A70B0F8DD
:102C6000CC10B0F8C820914224BF0021A0F8CC10AD
:102C7000B0F8CA10491EA0F8CA1001207047000021
:102C800030B4B0F8CA309A4282BF002030BC7047DE
:102C90000023002A88BF002418D900BFB0F8CCC098
:102CA00010F80CC001F803C0B0F8CCC00CF1010C56
:102CB0001FFA8CFCA0F8CCC0B0F8C850AC4528BFB7
:102CC000A0F8CC405B1C9BB29342E7D3B0F8CA108B
:102CD000891AA0F8CA1030BC0120704710B591EADB
:102CE000030F48BF83F0004300F1C883841A71EBDF
:102CF000030C05D2121943EB0C03001B61EB0C0112
:102D0000DFF824E14FEA1154A4EB135C1EEA430FF1
:102D100018BF9EEA445F73D023EA0E03DCF1200E55
:102D200021EA045143F4801332D322FA0CFE10EB53
:102D30000E0023FA0CFE41EB0E01CCF1200E03FA3B
:102D40000EFE10EB0E0051F10001B1F5801FCCF129
:102D5000200E32D201EB045112FA0EF2BDE81040FF
:102D600058BF7047401C38BF5FEA420218BF704727
:102D7000002814BF20F0010041F100014FEA410397
:102D800013F5001F38BF7047A1F1C04100F026BB0A
:102D9000012A43EB0302ACF1200CDCF11F0E32BF21
:102DA0004FF0000E23FA0CF310EB030041EB04513B
:102DB000B4EB115FD0D0A1EB045101F580114908AB
:102DC0005FEA300001EB04510ED350F1000038BF30
:102DD00012FA0EFE08D1BDE81040C9E7401C38BF0A
:102DE0005FEA4202CAD1C3E7BDE810404FEA41039F
:102DF00013F5001F38BF7047A1F1C04100F0EEBAD3
:102E00009EEA445F08D011EA5E0FBDE8104004BF9F
:102E100001F0004100207047BDE8104070B500F09F
:102E20008FFA00BF64FBBE3E0000E0FF491058BFB0
:102E3000C1F140415B1058BFC3F140438B42EFF3F7
:102E4000008070472DE9C04130B4DFF8A0C23CEAF1
:102E5000111418BF3CEA131400F0EC8081EA03055A
:102E60001CEA111444EAD57418BF1CEA131500F0CB
:102E7000C780A4EB05044FF0004545EAC12145EAAF
:102E8000C32341EA505143EA525304F17F749942FB
:102E900004F500344FEAC0204FEAC22208BF904236
:102EA00000F09C804FEA13650FF24016765D4FEA02
:102EB000134506FB05F7C7F1807706FB07F74FEAD6
:102EC000D737A7FB03687642C8F58038A7FB06CE44
:102ED00038BFA8F1010807FB08E64FF0000EA6FB7B
:102EE000028CE6FB03CEDCF1000CCEF1004E38BFC5
:102EF000AEF1010EA6FB0C584FF000074FF0000595
:102F0000E6FB0E87A1FB08C6A0FB07CE16EB0E065C
:102F100045F10005E1FB076515F1E04E7EBFA4F524
:102F200080345FEA46066D4116F1800745F10005E1
:102F30004FEA17274FEA066647EA0567A6F1DE461D
:102F4000B6F1805F4FEA15251FD9384624F0010CF1
:102F500005EBC471BCF1FE6F01EB0C1102D8F0BCA3
:102F6000BDE8008124425CBF01F5801E9EEAC47F5B
:102F700002D4F0BCBDE80081244238D4F0BCA1F1F9
:102F8000C041BDE8004100F029BA4FEAD22242EA2E
:102F900043524FEAD323A7FB02864FEAD02040EAF0
:102FA000415007FB03661EEA0E0F4FEAD12105FBD5
:102FB000026658BFA6EB0056B6EB00564FEA520E1B
:102FC0004EEAC37E18EB0E0E56EB530EBDD518EB32
:102FD00002085E417F1C55F10005B6E74FF48015ED
:102FE0004FF000074FF000064FF00008ADE7F0BCCF
:102FF0004FF0000001F1C04101F00041BDE8008147
:1030000011EA0C1F0CEA131500D00CE013EA0C1F98
:1030100000F025804FF00000F0BC81EA030101F0D0
:103020000041BDE80081F0BC81EA0301BDE8004138
:1030300000F0D4B9F0BCBDE8004170B500F080F9F3
:10304000097EFC3E00F007B881EA03014FF0000062
:1030500001F00041704781EA030100F0BFB9F0BC04
:103060004FF000002249BDE800417047FFFDFBF929
:10307000F7F5F4F2F0EEEDEBE9E8E6E4E3E1E0DEAB
:10308000DDDBDAD8D7D5D4D3D1D0CFCDCCCBCAC81D
:10309000C7C6C5C4C2C1C0BFBEBDBCBBBAB9B8B744
:1030A000B6B5B4B3B2B1B0AFAEADACABAAA9A8A837
:1030B000A7A6A5A4A3A3A2A1A09F9F9E9D9C9C9B05
:1030C0009A999998979796959594939392919190B0
:1030D0008F8F8E8E8D8C8C8B8B8A89898888878741
:1030E0008685858484838382828181800000FF07B6
:1030F0000000F87F4FEA1153A3F58063D3F11E035C
:10310000A8BFD3F1200C08DB4FF0004242EAC122F5
:1031100052EA505232FA03F0704709420BD4102B96
:10312000C4BF0020704703F5787CBCF1FF3F05D099
:103130004FF0FF3070474FF00000704770B500F05F
:10314000FFF800BF4992248000207047F0E7B0FAF2
:1031500080F310FA03F10AD0C3F11D0303F5806375
:103160004FEA41504FEA035202EBD12170474FF032
:103170000000704751EA030C17D41CF5801F58BF9C
:10318000BCF5801F00F10680994218BF704708BF48
:103190009042704707D711F5801F58BF13F5801F65
:1031A00019D499427047894270471CF5801F08D591
:1031B000BCF5801FF7D58B4218BF704708BF82420D
:1031C00070474FF4001C1CEB410F38BF1CEB430F42
:1031D00001D28B42704770B500F0B2F892244900DA
:1031E0004FF000514FF08053FFF720BEDFF848C189
:1031F00070B51CEA111E1EBF1CEA13159EEA0C0FC7
:1032000095EA0C0F00F06F8081EA030423EA4C1367
:103210004EEAD47E21EA4C1141F4801143F480132C
:10322000AE44A1FB024CA0FB0365AEF17F7E3619D4
:1032300055EB0C05A1FB034C4CF10003A0FB021C59
:1032400016EB0C06654153F10003094218BF46F026
:10325000010613F4007F0BD14FEA03314FEA05302A
:10326000340341EA155140EA16506FF003020AE0B8
:103270004FEAC3214FEAC520F40241EA555140EA22
:1032800056506FF0020202EB2E4201EB025585EA26
:10329000CE710AD05FEA440C18BF24F0004450F10C
:1032A000000041F1000120EAD47040F2FE7C62454A
:1032B00000D270BDA84214BF4FF080444FF040448C
:1032C000002E08BF0024BEF1806FA8BFA1F1C0414D
:1032D000BDE8704080F282804FF0000001F1C041F3
:1032E00001F0004170479EEA0C0F0CEA131518BF5D
:1032F00095EA0C0F06D04FF0000081EA030E0EF0A5
:10330000004170BD00F01CF88900013E00F007B8D4
:1033100000F009B84FEA430C5FEA5C5C08D081EA30
:10332000030100F05BB84FEA410C5FEA5C5CF6D148
:103330004FF00000014970470000FF070000F87FD0
:103340000EF1020E2EF0030E5EF8046B364205D429
:10335000012A43EB030515F5001F12D8012841EBA4
:10336000010C1CF5001F0CD80ED14FEAD17C15F5CD
:10337000001F0CEB4C0C0CF1020C08BF4CEBD37C87
:1033800004E04FF0080C01E04FEAD37C0CEB4C0555
:1033900026FA05F606F00706B6F1040C06D20EEB87
:1033A000860CBDE870404CF0010C6047DFE80CF083
:1033B000090B02024FF000414FF00000A1F500217F
:1033C00070BD19461046012851EB010418BFD4F511
:1033D000001484BF002001F0004170BD0808A0F572
:1033E00000114FEA3101704753EA010C17D41CF564
:1033F000801F58BFBCF5801F00F106808B4218BFAC
:10340000704708BF8242704707D713F5801F58BF27
:1034100011F5801F19D48B4270479B4270471CF5F1
:10342000801F08D5BCF5801FF7D5994218BF70479B
:1034300008BF904270474FF4001C1CEB430F38BF8D
:103440001CEB410F01D2994270470FB40CBC03BC76
:10345000FFF7C1BE91EA030F10B581F000413FF5BF
:1034600045AC83F0004300F009B8000010B591EAC4
:10347000030F48BF83F000433FF538AC841A71EB6B
:10348000030C07D212198CF0004C43EB0C03001B09
:1034900061EB0C01DFF8A4E14FEA1154A4EB135CDB
:1034A0001EEA430F18BF9EEA445F00F0B08023EA93
:1034B0006E03524221EA0451C3EB6E0338BF5B1E18
:1034C000DCF1200E25D322FA0CFE10EB0E0043FA9D
:1034D0000CFE41EB0E01CCF1200E03FA0EFE10EBB8
:1034E0000E0051F10001CCF1200E29D412FA0EF297
:1034F00001EB0451BDE8104058BF7047401C1CBF91
:10350000B2F1004F704700280CBF491C20F00100A9
:10351000704712EB020E43EB030218BF4FF0010E8F
:103520004EEA4202ACF1200CDCF11E0E54D943FAF3
:103530000CFE10EB0E0051F1FF31CCF11E0ED5D573
:103540000EF1010E12FA0EFE404141EB010101EBBA
:10355000445C5FEA5C5C10D910EBDE7001EB045157
:1035600038BFBEF1004FBDE8104018BF70470028BB
:103570000CBF491C20F00100704730D24FEAD42C18
:1035800011F5001124F400641BD0B1FA81F20B3A5A
:10359000A41AA41ED2F12003914030FA03F3194378
:1035A000904001EBCC71002C01EB0451BDE81040C0
:1035B000A8BF704701F1C0414FF0000001F0004189
:1035C0007047B0FA80F310FA03F100D110BDE41A8D
:1035D000173C4805C90AE4E701EB045110BD491046
:1035E00001EB0451BDE810404FEA300002E04FF01B
:1035F000000170474A0008BF0042F8D0B2F5001F32
:1036000028BF704701F000414FF0000070479EEA6C
:10361000445F07D011EA5E0FBDE8104004BF0021EF
:1036200000207047BDE8104070B5FFF789FE00BF6D
:1036300040DFF63E83F00041104670470000E0FF97
:10364000010002000400080010002000400080007B
:10365000000100020004000800100020004000806B
:103660000300240029001000290101320003000C8E
:10367000000C000C000C000C000C0000000000000E
:1036800000000000AB1B0008711C0008C31C0008F0
:10369000C91C0008CF1C0008D51C0008DB1C000852
:1036A000E11C0008E71C0008F71C0008D0360008E1
:1036B00000000020580000002801000828370008FA
:1036C00058000020300900004401000801CBFFFF32
:1036D00000A24A04000000000000000001020304F0
:1036E000060708090204060800000000010203049E
:1036F00001020304060708090000000000000000A2
:1037000000000000000000000000000000000000B9
:1037100000000000000000000000000000000000A9
:083720000000000000000000A1
:04000005080000ED02
:00000001FF
